{
  "_format": "hh-sol-artifact-1",
  "contractName": "Handler",
  "sourceName": "src/backend/contracts/Handler.sol",
  "abi": [
    {
      "inputs": [
        {
          "internalType": "address",
          "name": "_router",
          "type": "address"
        },
        {
          "internalType": "address",
          "name": "_factory",
          "type": "address"
        }
      ],
      "stateMutability": "nonpayable",
      "type": "constructor"
    },
    {
      "inputs": [
        {
          "internalType": "address",
          "name": "_token",
          "type": "address"
        },
        {
          "internalType": "uint256",
          "name": "_amountTokenDesired",
          "type": "uint256"
        },
        {
          "internalType": "uint256",
          "name": "_amountEthMin",
          "type": "uint256"
        },
        {
          "internalType": "address",
          "name": "_to",
          "type": "address"
        }
      ],
      "name": "addEthLiquidity",
      "outputs": [
        {
          "internalType": "bool",
          "name": "",
          "type": "bool"
        }
      ],
      "stateMutability": "nonpayable",
      "type": "function"
    },
    {
      "inputs": [
        {
          "internalType": "address",
          "name": "_tokenA",
          "type": "address"
        },
        {
          "internalType": "address",
          "name": "_tokenB",
          "type": "address"
        },
        {
          "internalType": "uint256",
          "name": "_amountADesired",
          "type": "uint256"
        },
        {
          "internalType": "uint256",
          "name": "_amountBDesired",
          "type": "uint256"
        },
        {
          "internalType": "address",
          "name": "_to",
          "type": "address"
        }
      ],
      "name": "addLiquidity",
      "outputs": [
        {
          "internalType": "bool",
          "name": "",
          "type": "bool"
        }
      ],
      "stateMutability": "nonpayable",
      "type": "function"
    },
    {
      "inputs": [
        {
          "internalType": "uint256",
          "name": "_amountOut",
          "type": "uint256"
        },
        {
          "internalType": "address[]",
          "name": "_path",
          "type": "address[]"
        },
        {
          "internalType": "address",
          "name": "_to",
          "type": "address"
        }
      ],
      "name": "swapEthForExactTokens",
      "outputs": [
        {
          "internalType": "bool",
          "name": "",
          "type": "bool"
        }
      ],
      "stateMutability": "nonpayable",
      "type": "function"
    },
    {
      "inputs": [
        {
          "internalType": "uint256",
          "name": "_amountIn",
          "type": "uint256"
        },
        {
          "internalType": "uint256",
          "name": "_amountOut",
          "type": "uint256"
        },
        {
          "internalType": "address[]",
          "name": "_path",
          "type": "address[]"
        },
        {
          "internalType": "address",
          "name": "_to",
          "type": "address"
        }
      ],
      "name": "swapExactTokensForTokens",
      "outputs": [
        {
          "internalType": "bool",
          "name": "",
          "type": "bool"
        }
      ],
      "stateMutability": "nonpayable",
      "type": "function"
    }
  ],
  "bytecode": "0x60806040523480156200001157600080fd5b50604051620011c5380380620011c583398181016040528101906200003791906200012a565b816000806101000a81548173ffffffffffffffffffffffffffffffffffffffff021916908373ffffffffffffffffffffffffffffffffffffffff16021790555080600160006101000a81548173ffffffffffffffffffffffffffffffffffffffff021916908373ffffffffffffffffffffffffffffffffffffffff160217905550505062000171565b600080fd5b600073ffffffffffffffffffffffffffffffffffffffff82169050919050565b6000620000f282620000c5565b9050919050565b6200010481620000e5565b81146200011057600080fd5b50565b6000815190506200012481620000f9565b92915050565b60008060408385031215620001445762000143620000c0565b5b6000620001548582860162000113565b9250506020620001678582860162000113565b9150509250929050565b61104480620001816000396000f3fe608060405234801561001057600080fd5b506004361061004c5760003560e01c8063472b43f3146100515780634b2fc7bb1461008157806392e77b25146100b1578063c93f31b2146100e1575b600080fd5b61006b6004803603810190610066919061080a565b610111565b60405161007891906108ad565b60405180910390f35b61009b600480360381019061009691906108c8565b6102ab565b6040516100a891906108ad565b60405180910390f35b6100cb60048036038101906100c69190610943565b6104c4565b6040516100d891906108ad565b60405180910390f35b6100fb60048036038101906100f691906109b7565b61058e565b60405161010891906108ad565b60405180910390f35b6000808484600081811061012857610127610a1e565b5b905060200201602081019061013d9190610a4d565b90508073ffffffffffffffffffffffffffffffffffffffff1663095ea7b360008054906101000a900473ffffffffffffffffffffffffffffffffffffffff16896040518363ffffffff1660e01b815260040161019a929190610a98565b6020604051808303816000875af11580156101b9573d6000803e3d6000fd5b505050506040513d601f19601f820116820180604052508101906101dd9190610aed565b506000610e10426101ee9190610b49565b905060008054906101000a900473ffffffffffffffffffffffffffffffffffffffff1673ffffffffffffffffffffffffffffffffffffffff166338ed17398989898989876040518763ffffffff1660e01b815260040161025396959493929190610c40565b6000604051808303816000875af1158015610272573d6000803e3d6000fd5b505050506040513d6000823e3d601f19601f8201168201806040525081019061029b9190610e00565b5060019250505095945050505050565b600080610e10426102bc9190610b49565b9050600087905060008790508173ffffffffffffffffffffffffffffffffffffffff1663095ea7b360008054906101000a900473ffffffffffffffffffffffffffffffffffffffff16896040518363ffffffff1660e01b8152600401610323929190610a98565b6020604051808303816000875af1158015610342573d6000803e3d6000fd5b505050506040513d601f19601f820116820180604052508101906103669190610aed565b508073ffffffffffffffffffffffffffffffffffffffff1663095ea7b360008054906101000a900473ffffffffffffffffffffffffffffffffffffffff16886040518363ffffffff1660e01b81526004016103c2929190610a98565b6020604051808303816000875af11580156103e1573d6000803e3d6000fd5b505050506040513d601f19601f820116820180604052508101906104059190610aed565b5060008054906101000a900473ffffffffffffffffffffffffffffffffffffffff1673ffffffffffffffffffffffffffffffffffffffff1663e8e337008a8a8a8a6000808c8b6040518963ffffffff1660e01b815260040161046e989796959493929190610e8e565b6060604051808303816000875af115801561048d573d6000803e3d6000fd5b505050506040513d601f19601f820116820180604052508101906104b19190610f0c565b5050506001935050505095945050505050565b600080610e10426104d59190610b49565b905060008054906101000a900473ffffffffffffffffffffffffffffffffffffffff1673ffffffffffffffffffffffffffffffffffffffff1663fb3bdb4187878787866040518663ffffffff1660e01b8152600401610538959493929190610f5f565b6000604051808303816000875af1158015610557573d6000803e3d6000fd5b505050506040513d6000823e3d601f19601f820116820180604052508101906105809190610e00565b506001915050949350505050565b6000808590506000610e10426105a49190610b49565b90508173ffffffffffffffffffffffffffffffffffffffff1663095ea7b360008054906101000a900473ffffffffffffffffffffffffffffffffffffffff16886040518363ffffffff1660e01b8152600401610601929190610a98565b6020604051808303816000875af1158015610620573d6000803e3d6000fd5b505050506040513d601f19601f820116820180604052508101906106449190610aed565b5060008054906101000a900473ffffffffffffffffffffffffffffffffffffffff1673ffffffffffffffffffffffffffffffffffffffff1663f305d719888860008989876040518763ffffffff1660e01b81526004016106a996959493929190610fad565b6060604051808303816000875af11580156106c8573d6000803e3d6000fd5b505050506040513d601f19601f820116820180604052508101906106ec9190610f0c565b505050600192505050949350505050565b6000604051905090565b600080fd5b600080fd5b6000819050919050565b61072481610711565b811461072f57600080fd5b50565b6000813590506107418161071b565b92915050565b600080fd5b600080fd5b600080fd5b60008083601f84011261076c5761076b610747565b5b8235905067ffffffffffffffff8111156107895761078861074c565b5b6020830191508360208202830111156107a5576107a4610751565b5b9250929050565b600073ffffffffffffffffffffffffffffffffffffffff82169050919050565b60006107d7826107ac565b9050919050565b6107e7816107cc565b81146107f257600080fd5b50565b600081359050610804816107de565b92915050565b60008060008060006080868803121561082657610825610707565b5b600061083488828901610732565b955050602061084588828901610732565b945050604086013567ffffffffffffffff8111156108665761086561070c565b5b61087288828901610756565b93509350506060610885888289016107f5565b9150509295509295909350565b60008115159050919050565b6108a781610892565b82525050565b60006020820190506108c2600083018461089e565b92915050565b600080600080600060a086880312156108e4576108e3610707565b5b60006108f2888289016107f5565b9550506020610903888289016107f5565b945050604061091488828901610732565b935050606061092588828901610732565b9250506080610936888289016107f5565b9150509295509295909350565b6000806000806060858703121561095d5761095c610707565b5b600061096b87828801610732565b945050602085013567ffffffffffffffff81111561098c5761098b61070c565b5b61099887828801610756565b935093505060406109ab878288016107f5565b91505092959194509250565b600080600080608085870312156109d1576109d0610707565b5b60006109df878288016107f5565b94505060206109f087828801610732565b9350506040610a0187828801610732565b9250506060610a12878288016107f5565b91505092959194509250565b7f4e487b7100000000000000000000000000000000000000000000000000000000600052603260045260246000fd5b600060208284031215610a6357610a62610707565b5b6000610a71848285016107f5565b91505092915050565b610a83816107cc565b82525050565b610a9281610711565b82525050565b6000604082019050610aad6000830185610a7a565b610aba6020830184610a89565b9392505050565b610aca81610892565b8114610ad557600080fd5b50565b600081519050610ae781610ac1565b92915050565b600060208284031215610b0357610b02610707565b5b6000610b1184828501610ad8565b91505092915050565b7f4e487b7100000000000000000000000000000000000000000000000000000000600052601160045260246000fd5b6000610b5482610711565b9150610b5f83610711565b9250828201905080821115610b7757610b76610b1a565b5b92915050565b600082825260208201905092915050565b6000819050919050565b610ba1816107cc565b82525050565b6000610bb38383610b98565b60208301905092915050565b6000610bce60208401846107f5565b905092915050565b6000602082019050919050565b6000610bef8385610b7d565b9350610bfa82610b8e565b8060005b85811015610c3357610c108284610bbf565b610c1a8882610ba7565b9750610c2583610bd6565b925050600181019050610bfe565b5085925050509392505050565b600060a082019050610c556000830189610a89565b610c626020830188610a89565b8181036040830152610c75818688610be3565b9050610c846060830185610a7a565b610c916080830184610a89565b979650505050505050565b6000601f19601f8301169050919050565b7f4e487b7100000000000000000000000000000000000000000000000000000000600052604160045260246000fd5b610ce582610c9c565b810181811067ffffffffffffffff82111715610d0457610d03610cad565b5b80604052505050565b6000610d176106fd565b9050610d238282610cdc565b919050565b600067ffffffffffffffff821115610d4357610d42610cad565b5b602082029050602081019050919050565b600081519050610d638161071b565b92915050565b6000610d7c610d7784610d28565b610d0d565b90508083825260208201905060208402830185811115610d9f57610d9e610751565b5b835b81811015610dc85780610db48882610d54565b845260208401935050602081019050610da1565b5050509392505050565b600082601f830112610de757610de6610747565b5b8151610df7848260208601610d69565b91505092915050565b600060208284031215610e1657610e15610707565b5b600082015167ffffffffffffffff811115610e3457610e3361070c565b5b610e4084828501610dd2565b91505092915050565b6000819050919050565b6000819050919050565b6000610e78610e73610e6e84610e49565b610e53565b610711565b9050919050565b610e8881610e5d565b82525050565b600061010082019050610ea4600083018b610a7a565b610eb1602083018a610a7a565b610ebe6040830189610a89565b610ecb6060830188610a89565b610ed86080830187610e7f565b610ee560a0830186610e7f565b610ef260c0830185610a7a565b610eff60e0830184610a89565b9998505050505050505050565b600080600060608486031215610f2557610f24610707565b5b6000610f3386828701610d54565b9350506020610f4486828701610d54565b9250506040610f5586828701610d54565b9150509250925092565b6000608082019050610f746000830188610a89565b8181036020830152610f87818688610be3565b9050610f966040830185610a7a565b610fa36060830184610a89565b9695505050505050565b600060c082019050610fc26000830189610a7a565b610fcf6020830188610a89565b610fdc6040830187610e7f565b610fe96060830186610a89565b610ff66080830185610a7a565b61100360a0830184610a89565b97965050505050505056fea2646970667358221220eb11fe8048e33e54179fb66cf3cec0bdde86711814f17cbc9c16ba24811d9b8c64736f6c63430008110033",
  "linkReferences": {},
  "deployedLinkReferences": {}
}